{
  "_format": "hh-sol-artifact-1",
  "contractName": "TokenVaultV1",
  "sourceName": "contracts/TokenVaultV1.sol",
  "abi": [
    {
      "inputs": [],
      "stateMutability": "nonpayable",
      "type": "constructor"
    },
    {
      "inputs": [],
      "name": "AccessControlBadConfirmation",
      "type": "error"
    },
    {
      "inputs": [
        {
          "internalType": "address",
          "name": "account",
          "type": "address"
        },
        {
          "internalType": "bytes32",
          "name": "neededRole",
          "type": "bytes32"
        }
      ],
      "name": "AccessControlUnauthorizedAccount",
      "type": "error"
    },
    {
      "inputs": [
        {
          "internalType": "address",
          "name": "target",
          "type": "address"
        }
      ],
      "name": "AddressEmptyCode",
      "type": "error"
    },
    {
      "inputs": [
        {
          "internalType": "address",
          "name": "implementation",
          "type": "address"
        }
      ],
      "name": "ERC1967InvalidImplementation",
      "type": "error"
    },
    {
      "inputs": [],
      "name": "ERC1967NonPayable",
      "type": "error"
    },
    {
      "inputs": [],
      "name": "FailedCall",
      "type": "error"
    },
    {
      "inputs": [],
      "name": "InvalidInitialization",
      "type": "error"
    },
    {
      "inputs": [],
      "name": "NotInitializing",
      "type": "error"
    },
    {
      "inputs": [],
      "name": "UUPSUnauthorizedCallContext",
      "type": "error"
    },
    {
      "inputs": [
        {
          "internalType": "bytes32",
          "name": "slot",
          "type": "bytes32"
        }
      ],
      "name": "UUPSUnsupportedProxiableUUID",
      "type": "error"
    },
    {
      "anonymous": false,
      "inputs": [
        {
          "indexed": false,
          "internalType": "uint64",
          "name": "version",
          "type": "uint64"
        }
      ],
      "name": "Initialized",
      "type": "event"
    },
    {
      "anonymous": false,
      "inputs": [
        {
          "indexed": true,
          "internalType": "bytes32",
          "name": "role",
          "type": "bytes32"
        },
        {
          "indexed": true,
          "internalType": "bytes32",
          "name": "previousAdminRole",
          "type": "bytes32"
        },
        {
          "indexed": true,
          "internalType": "bytes32",
          "name": "newAdminRole",
          "type": "bytes32"
        }
      ],
      "name": "RoleAdminChanged",
      "type": "event"
    },
    {
      "anonymous": false,
      "inputs": [
        {
          "indexed": true,
          "internalType": "bytes32",
          "name": "role",
          "type": "bytes32"
        },
        {
          "indexed": true,
          "internalType": "address",
          "name": "account",
          "type": "address"
        },
        {
          "indexed": true,
          "internalType": "address",
          "name": "sender",
          "type": "address"
        }
      ],
      "name": "RoleGranted",
      "type": "event"
    },
    {
      "anonymous": false,
      "inputs": [
        {
          "indexed": true,
          "internalType": "bytes32",
          "name": "role",
          "type": "bytes32"
        },
        {
          "indexed": true,
          "internalType": "address",
          "name": "account",
          "type": "address"
        },
        {
          "indexed": true,
          "internalType": "address",
          "name": "sender",
          "type": "address"
        }
      ],
      "name": "RoleRevoked",
      "type": "event"
    },
    {
      "anonymous": false,
      "inputs": [
        {
          "indexed": true,
          "internalType": "address",
          "name": "implementation",
          "type": "address"
        }
      ],
      "name": "Upgraded",
      "type": "event"
    },
    {
      "inputs": [],
      "name": "DEFAULT_ADMIN_ROLE",
      "outputs": [
        {
          "internalType": "bytes32",
          "name": "",
          "type": "bytes32"
        }
      ],
      "stateMutability": "view",
      "type": "function"
    },
    {
      "inputs": [],
      "name": "UPGRADER_ROLE",
      "outputs": [
        {
          "internalType": "bytes32",
          "name": "",
          "type": "bytes32"
        }
      ],
      "stateMutability": "view",
      "type": "function"
    },
    {
      "inputs": [],
      "name": "UPGRADE_INTERFACE_VERSION",
      "outputs": [
        {
          "internalType": "string",
          "name": "",
          "type": "string"
        }
      ],
      "stateMutability": "view",
      "type": "function"
    },
    {
      "inputs": [],
      "name": "assetToken",
      "outputs": [
        {
          "internalType": "address",
          "name": "",
          "type": "address"
        }
      ],
      "stateMutability": "view",
      "type": "function"
    },
    {
      "inputs": [
        {
          "internalType": "address",
          "name": "user",
          "type": "address"
        }
      ],
      "name": "balanceOf",
      "outputs": [
        {
          "internalType": "uint256",
          "name": "",
          "type": "uint256"
        }
      ],
      "stateMutability": "view",
      "type": "function"
    },
    {
      "inputs": [
        {
          "internalType": "uint256",
          "name": "amount",
          "type": "uint256"
        }
      ],
      "name": "deposit",
      "outputs": [],
      "stateMutability": "nonpayable",
      "type": "function"
    },
    {
      "inputs": [],
      "name": "depositFee",
      "outputs": [
        {
          "internalType": "uint256",
          "name": "",
          "type": "uint256"
        }
      ],
      "stateMutability": "view",
      "type": "function"
    },
    {
      "inputs": [],
      "name": "getDepositFee",
      "outputs": [
        {
          "internalType": "uint256",
          "name": "",
          "type": "uint256"
        }
      ],
      "stateMutability": "view",
      "type": "function"
    },
    {
      "inputs": [],
      "name": "getImplementationVersion",
      "outputs": [
        {
          "internalType": "string",
          "name": "",
          "type": "string"
        }
      ],
      "stateMutability": "pure",
      "type": "function"
    },
    {
      "inputs": [
        {
          "internalType": "bytes32",
          "name": "role",
          "type": "bytes32"
        }
      ],
      "name": "getRoleAdmin",
      "outputs": [
        {
          "internalType": "bytes32",
          "name": "",
          "type": "bytes32"
        }
      ],
      "stateMutability": "view",
      "type": "function"
    },
    {
      "inputs": [
        {
          "internalType": "bytes32",
          "name": "role",
          "type": "bytes32"
        },
        {
          "internalType": "address",
          "name": "account",
          "type": "address"
        }
      ],
      "name": "grantRole",
      "outputs": [],
      "stateMutability": "nonpayable",
      "type": "function"
    },
    {
      "inputs": [
        {
          "internalType": "bytes32",
          "name": "role",
          "type": "bytes32"
        },
        {
          "internalType": "address",
          "name": "account",
          "type": "address"
        }
      ],
      "name": "hasRole",
      "outputs": [
        {
          "internalType": "bool",
          "name": "",
          "type": "bool"
        }
      ],
      "stateMutability": "view",
      "type": "function"
    },
    {
      "inputs": [
        {
          "internalType": "address",
          "name": "_token",
          "type": "address"
        },
        {
          "internalType": "address",
          "name": "_admin",
          "type": "address"
        },
        {
          "internalType": "uint256",
          "name": "_fee",
          "type": "uint256"
        }
      ],
      "name": "initialize",
      "outputs": [],
      "stateMutability": "nonpayable",
      "type": "function"
    },
    {
      "inputs": [],
      "name": "proxiableUUID",
      "outputs": [
        {
          "internalType": "bytes32",
          "name": "",
          "type": "bytes32"
        }
      ],
      "stateMutability": "view",
      "type": "function"
    },
    {
      "inputs": [
        {
          "internalType": "bytes32",
          "name": "role",
          "type": "bytes32"
        },
        {
          "internalType": "address",
          "name": "callerConfirmation",
          "type": "address"
        }
      ],
      "name": "renounceRole",
      "outputs": [],
      "stateMutability": "nonpayable",
      "type": "function"
    },
    {
      "inputs": [
        {
          "internalType": "bytes32",
          "name": "role",
          "type": "bytes32"
        },
        {
          "internalType": "address",
          "name": "account",
          "type": "address"
        }
      ],
      "name": "revokeRole",
      "outputs": [],
      "stateMutability": "nonpayable",
      "type": "function"
    },
    {
      "inputs": [
        {
          "internalType": "bytes4",
          "name": "interfaceId",
          "type": "bytes4"
        }
      ],
      "name": "supportsInterface",
      "outputs": [
        {
          "internalType": "bool",
          "name": "",
          "type": "bool"
        }
      ],
      "stateMutability": "view",
      "type": "function"
    },
    {
      "inputs": [],
      "name": "totalDeposits",
      "outputs": [
        {
          "internalType": "uint256",
          "name": "",
          "type": "uint256"
        }
      ],
      "stateMutability": "view",
      "type": "function"
    },
    {
      "inputs": [
        {
          "internalType": "address",
          "name": "newImplementation",
          "type": "address"
        },
        {
          "internalType": "bytes",
          "name": "data",
          "type": "bytes"
        }
      ],
      "name": "upgradeToAndCall",
      "outputs": [],
      "stateMutability": "payable",
      "type": "function"
    },
    {
      "inputs": [
        {
          "internalType": "uint256",
          "name": "amount",
          "type": "uint256"
        }
      ],
      "name": "withdraw",
      "outputs": [],
      "stateMutability": "nonpayable",
      "type": "function"
    }
  ],
  "bytecode": "0x60a06040523073ffffffffffffffffffffffffffffffffffffffff1660809073ffffffffffffffffffffffffffffffffffffffff168152503480156200004457600080fd5b50620000556200005b60201b60201c565b620001ee565b60006200006d6200016560201b60201c565b90508060000160089054906101000a900460ff1615620000b9576040517ff92ee8a900000000000000000000000000000000000000000000000000000000815260040160405180910390fd5b67ffffffffffffffff80168160000160009054906101000a900467ffffffffffffffff1667ffffffffffffffff1614620001625767ffffffffffffffff8160000160006101000a81548167ffffffffffffffff021916908367ffffffffffffffff1602179055507fc7f505b2f371ae2175ee4913f4499e1f2633a7b5936321eed1cdaeb6115181d267ffffffffffffffff604051620001599190620001d1565b60405180910390a15b50565b600080620001786200018160201b60201c565b90508091505090565b60007ff0c57e16840df040f15088dc2f81fe391c3923bec73e23a9662efc9c229c6a0060001b905090565b600067ffffffffffffffff82169050919050565b620001cb81620001ac565b82525050565b6000602082019050620001e86000830184620001c0565b92915050565b608051611fdf6200021860003960008181610fd10152818161102601526112040152611fdf6000f3fe60806040526004361061011f5760003560e01c806367a52793116100a0578063ad3cb1cc11610064578063ad3cb1cc146103da578063b6b55f2514610405578063bc327e401461042e578063d547741f14610459578063f72c0d8b146104825761011f565b806367a52793146102df57806370a082311461030a5780637d8820971461034757806391d1485414610372578063a217fddf146103af5761011f565b80632e1a7d4d116100e75780632e1a7d4d1461021d5780632f2ff15d1461024657806336568abe1461026f5780634f1ef2861461029857806352d1902d146102b45761011f565b806301ffc9a7146101245780630de705b5146101615780631083f7611461018c5780631794bb3c146101b7578063248a9ca3146101e0575b600080fd5b34801561013057600080fd5b5061014b60048036038101906101469190611706565b6104ad565b604051610158919061174e565b60405180910390f35b34801561016d57600080fd5b50610176610527565b6040516101839190611782565b60405180910390f35b34801561019857600080fd5b506101a1610531565b6040516101ae91906117de565b60405180910390f35b3480156101c357600080fd5b506101de60048036038101906101d99190611851565b610555565b005b3480156101ec57600080fd5b50610207600480360381019061020291906118da565b61076d565b6040516102149190611916565b60405180910390f35b34801561022957600080fd5b50610244600480360381019061023f9190611931565b61079b565b005b34801561025257600080fd5b5061026d6004803603810190610268919061195e565b61092e565b005b34801561027b57600080fd5b506102966004803603810190610291919061195e565b610950565b005b6102b260048036038101906102ad9190611ae4565b6109cb565b005b3480156102c057600080fd5b506102c96109ea565b6040516102d69190611916565b60405180910390f35b3480156102eb57600080fd5b506102f4610a1d565b6040516103019190611782565b60405180910390f35b34801561031657600080fd5b50610331600480360381019061032c9190611b40565b610a23565b60405161033e9190611782565b60405180910390f35b34801561035357600080fd5b5061035c610a6c565b6040516103699190611782565b60405180910390f35b34801561037e57600080fd5b506103996004803603810190610394919061195e565b610a76565b6040516103a6919061174e565b60405180910390f35b3480156103bb57600080fd5b506103c4610aef565b6040516103d19190611916565b60405180910390f35b3480156103e657600080fd5b506103ef610af6565b6040516103fc9190611bec565b60405180910390f35b34801561041157600080fd5b5061042c60048036038101906104279190611931565b610b2f565b005b34801561043a57600080fd5b50610443610c73565b6040516104509190611bec565b60405180910390f35b34801561046557600080fd5b50610480600480360381019061047b919061195e565b610cb0565b005b34801561048e57600080fd5b50610497610cd2565b6040516104a49190611916565b60405180910390f35b60007f7965db0b000000000000000000000000000000000000000000000000000000007bffffffffffffffffffffffffffffffffffffffffffffffffffffffff1916827bffffffffffffffffffffffffffffffffffffffffffffffffffffffff19161480610520575061051f82610cf6565b5b9050919050565b6000600154905090565b60008054906101000a900473ffffffffffffffffffffffffffffffffffffffff1681565b600061055f610d60565b905060008160000160089054906101000a900460ff1615905060008260000160009054906101000a900467ffffffffffffffff1690506000808267ffffffffffffffff161480156105ad5750825b9050600060018367ffffffffffffffff161480156105e2575060003073ffffffffffffffffffffffffffffffffffffffff163b145b9050811580156105f0575080155b15610627576040517ff92ee8a900000000000000000000000000000000000000000000000000000000815260040160405180910390fd5b60018560000160006101000a81548167ffffffffffffffff021916908367ffffffffffffffff16021790555083156106775760018560000160086101000a81548160ff0219169083151502179055505b61067f610d74565b610687610d7e565b876000806101000a81548173ffffffffffffffffffffffffffffffffffffffff021916908373ffffffffffffffffffffffffffffffffffffffff160217905550856001819055506106db6000801b88610d88565b506107067f189ab7a9244df0848122154315af71fe140f3db0fe014031783b0946b8c9d2e388610d88565b5083156107635760008560000160086101000a81548160ff0219169083151502179055507fc7f505b2f371ae2175ee4913f4499e1f2633a7b5936321eed1cdaeb6115181d2600160405161075a9190611c67565b60405180910390a15b5050505050505050565b600080610778610e89565b905080600001600084815260200190815260200160002060010154915050919050565b80600360003373ffffffffffffffffffffffffffffffffffffffff1673ffffffffffffffffffffffffffffffffffffffff16815260200190815260200160002054101561081d576040517f08c379a000000000000000000000000000000000000000000000000000000000815260040161081490611cce565b60405180910390fd5b80600360003373ffffffffffffffffffffffffffffffffffffffff1673ffffffffffffffffffffffffffffffffffffffff168152602001908152602001600020600082825461086c9190611d1d565b9250508190555080600260008282546108859190611d1d565b9250508190555060008054906101000a900473ffffffffffffffffffffffffffffffffffffffff1673ffffffffffffffffffffffffffffffffffffffff1663a9059cbb33836040518363ffffffff1660e01b81526004016108e7929190611d51565b6020604051808303816000875af1158015610906573d6000803e3d6000fd5b505050506040513d601f19601f8201168201806040525081019061092a9190611da6565b5050565b6109378261076d565b61094081610eb1565b61094a8383610d88565b50505050565b610958610ec5565b73ffffffffffffffffffffffffffffffffffffffff168173ffffffffffffffffffffffffffffffffffffffff16146109bc576040517f6697b23200000000000000000000000000000000000000000000000000000000815260040160405180910390fd5b6109c68282610ecd565b505050565b6109d3610fcf565b6109dc826110b5565b6109e682826110e3565b5050565b60006109f4611202565b7f360894a13ba1a3210667c828492db98dca3e2076cc3735a920a3ca505d382bbc60001b905090565b60015481565b6000600360008373ffffffffffffffffffffffffffffffffffffffff1673ffffffffffffffffffffffffffffffffffffffff168152602001908152602001600020549050919050565b6000600254905090565b600080610a81610e89565b905080600001600085815260200190815260200160002060000160008473ffffffffffffffffffffffffffffffffffffffff1673ffffffffffffffffffffffffffffffffffffffff16815260200190815260200160002060009054906101000a900460ff1691505092915050565b6000801b81565b6040518060400160405280600581526020017f352e302e3000000000000000000000000000000000000000000000000000000081525081565b600061271060015483610b429190611dd3565b610b4c9190611e44565b905060008183610b5c9190611d1d565b905060008054906101000a900473ffffffffffffffffffffffffffffffffffffffff1673ffffffffffffffffffffffffffffffffffffffff166323b872dd3330866040518463ffffffff1660e01b8152600401610bbb93929190611e75565b6020604051808303816000875af1158015610bda573d6000803e3d6000fd5b505050506040513d601f19601f82011682018060405250810190610bfe9190611da6565b5080600360003373ffffffffffffffffffffffffffffffffffffffff1673ffffffffffffffffffffffffffffffffffffffff1681526020019081526020016000206000828254610c4e9190611eac565b925050819055508060026000828254610c679190611eac565b92505081905550505050565b60606040518060400160405280600281526020017f5631000000000000000000000000000000000000000000000000000000000000815250905090565b610cb98261076d565b610cc281610eb1565b610ccc8383610ecd565b50505050565b7f189ab7a9244df0848122154315af71fe140f3db0fe014031783b0946b8c9d2e381565b60007f01ffc9a7000000000000000000000000000000000000000000000000000000007bffffffffffffffffffffffffffffffffffffffffffffffffffffffff1916827bffffffffffffffffffffffffffffffffffffffffffffffffffffffff1916149050919050565b600080610d6b611289565b90508091505090565b610d7c6112b4565b565b610d866112b4565b565b600080610d93610e89565b9050610d9f8484610a76565b610e7d57600181600001600086815260200190815260200160002060000160008573ffffffffffffffffffffffffffffffffffffffff1673ffffffffffffffffffffffffffffffffffffffff16815260200190815260200160002060006101000a81548160ff021916908315150217905550610e19610ec5565b73ffffffffffffffffffffffffffffffffffffffff168373ffffffffffffffffffffffffffffffffffffffff16857f2f8788117e7eff1d82e926ec794901d17c78024a50270940304540a733656f0d60405160405180910390a46001915050610e83565b60009150505b92915050565b60007f02dd7bc7dec4dceedda775e58dd541e08a116c6c53815c0bd028192f7b626800905090565b610ec281610ebd610ec5565b6112f4565b50565b600033905090565b600080610ed8610e89565b9050610ee48484610a76565b15610fc357600081600001600086815260200190815260200160002060000160008573ffffffffffffffffffffffffffffffffffffffff1673ffffffffffffffffffffffffffffffffffffffff16815260200190815260200160002060006101000a81548160ff021916908315150217905550610f5f610ec5565b73ffffffffffffffffffffffffffffffffffffffff168373ffffffffffffffffffffffffffffffffffffffff16857ff6391f5c32d9c69d2a47ea670b442974b53935d1edc7fd64eb21e047a839171b60405160405180910390a46001915050610fc9565b60009150505b92915050565b7f000000000000000000000000000000000000000000000000000000000000000073ffffffffffffffffffffffffffffffffffffffff163073ffffffffffffffffffffffffffffffffffffffff16148061107c57507f000000000000000000000000000000000000000000000000000000000000000073ffffffffffffffffffffffffffffffffffffffff16611063611345565b73ffffffffffffffffffffffffffffffffffffffff1614155b156110b3576040517fe07c8dba00000000000000000000000000000000000000000000000000000000815260040160405180910390fd5b565b7f189ab7a9244df0848122154315af71fe140f3db0fe014031783b0946b8c9d2e36110df81610eb1565b5050565b8173ffffffffffffffffffffffffffffffffffffffff166352d1902d6040518163ffffffff1660e01b8152600401602060405180830381865afa92505050801561114b57506040513d601f19601f820116820180604052508101906111489190611ef5565b60015b61118c57816040517f4c9c8ce300000000000000000000000000000000000000000000000000000000815260040161118391906117de565b60405180910390fd5b7f360894a13ba1a3210667c828492db98dca3e2076cc3735a920a3ca505d382bbc60001b81146111f357806040517faa1d49a40000000000000000000000000000000000000000000000000000000081526004016111ea9190611916565b60405180910390fd5b6111fd838361139c565b505050565b7f000000000000000000000000000000000000000000000000000000000000000073ffffffffffffffffffffffffffffffffffffffff163073ffffffffffffffffffffffffffffffffffffffff1614611287576040517fe07c8dba00000000000000000000000000000000000000000000000000000000815260040160405180910390fd5b565b60007ff0c57e16840df040f15088dc2f81fe391c3923bec73e23a9662efc9c229c6a0060001b905090565b6112bc61140f565b6112f2576040517fd7e6bcf800000000000000000000000000000000000000000000000000000000815260040160405180910390fd5b565b6112fe8282610a76565b6113415780826040517fe2517d3f000000000000000000000000000000000000000000000000000000008152600401611338929190611f22565b60405180910390fd5b5050565b60006113737f360894a13ba1a3210667c828492db98dca3e2076cc3735a920a3ca505d382bbc60001b61142f565b60000160009054906101000a900473ffffffffffffffffffffffffffffffffffffffff16905090565b6113a582611439565b8173ffffffffffffffffffffffffffffffffffffffff167fbc7cd75a20ee27fd9adebab32041f755214dbc6bffa90cc0225b39da2e5c2d3b60405160405180910390a2600081511115611402576113fc8282611506565b5061140b565b61140a61158a565b5b5050565b6000611419610d60565b60000160089054906101000a900460ff16905090565b6000819050919050565b60008173ffffffffffffffffffffffffffffffffffffffff163b0361149557806040517f4c9c8ce300000000000000000000000000000000000000000000000000000000815260040161148c91906117de565b60405180910390fd5b806114c27f360894a13ba1a3210667c828492db98dca3e2076cc3735a920a3ca505d382bbc60001b61142f565b60000160006101000a81548173ffffffffffffffffffffffffffffffffffffffff021916908373ffffffffffffffffffffffffffffffffffffffff16021790555050565b60606000808473ffffffffffffffffffffffffffffffffffffffff16846040516115309190611f92565b600060405180830381855af49150503d806000811461156b576040519150601f19603f3d011682016040523d82523d6000602084013e611570565b606091505b50915091506115808583836115c7565b9250505092915050565b60003411156115c5576040517fb398979f00000000000000000000000000000000000000000000000000000000815260040160405180910390fd5b565b6060826115dc576115d782611656565b61164e565b60008251148015611604575060008473ffffffffffffffffffffffffffffffffffffffff163b145b1561164657836040517f9996b31500000000000000000000000000000000000000000000000000000000815260040161163d91906117de565b60405180910390fd5b81905061164f565b5b9392505050565b60008151111561166857805160208201fd5b6040517fd6bda27500000000000000000000000000000000000000000000000000000000815260040160405180910390fd5b6000604051905090565b600080fd5b600080fd5b60007fffffffff0000000000000000000000000000000000000000000000000000000082169050919050565b6116e3816116ae565b81146116ee57600080fd5b50565b600081359050611700816116da565b92915050565b60006020828403121561171c5761171b6116a4565b5b600061172a848285016116f1565b91505092915050565b60008115159050919050565b61174881611733565b82525050565b6000602082019050611763600083018461173f565b92915050565b6000819050919050565b61177c81611769565b82525050565b60006020820190506117976000830184611773565b92915050565b600073ffffffffffffffffffffffffffffffffffffffff82169050919050565b60006117c88261179d565b9050919050565b6117d8816117bd565b82525050565b60006020820190506117f360008301846117cf565b92915050565b611802816117bd565b811461180d57600080fd5b50565b60008135905061181f816117f9565b92915050565b61182e81611769565b811461183957600080fd5b50565b60008135905061184b81611825565b92915050565b60008060006060848603121561186a576118696116a4565b5b600061187886828701611810565b935050602061188986828701611810565b925050604061189a8682870161183c565b9150509250925092565b6000819050919050565b6118b7816118a4565b81146118c257600080fd5b50565b6000813590506118d4816118ae565b92915050565b6000602082840312156118f0576118ef6116a4565b5b60006118fe848285016118c5565b91505092915050565b611910816118a4565b82525050565b600060208201905061192b6000830184611907565b92915050565b600060208284031215611947576119466116a4565b5b60006119558482850161183c565b91505092915050565b60008060408385031215611975576119746116a4565b5b6000611983858286016118c5565b925050602061199485828601611810565b9150509250929050565b600080fd5b600080fd5b6000601f19601f8301169050919050565b7f4e487b7100000000000000000000000000000000000000000000000000000000600052604160045260246000fd5b6119f1826119a8565b810181811067ffffffffffffffff82111715611a1057611a0f6119b9565b5b80604052505050565b6000611a2361169a565b9050611a2f82826119e8565b919050565b600067ffffffffffffffff821115611a4f57611a4e6119b9565b5b611a58826119a8565b9050602081019050919050565b82818337600083830152505050565b6000611a87611a8284611a34565b611a19565b905082815260208101848484011115611aa357611aa26119a3565b5b611aae848285611a65565b509392505050565b600082601f830112611acb57611aca61199e565b5b8135611adb848260208601611a74565b91505092915050565b60008060408385031215611afb57611afa6116a4565b5b6000611b0985828601611810565b925050602083013567ffffffffffffffff811115611b2a57611b296116a9565b5b611b3685828601611ab6565b9150509250929050565b600060208284031215611b5657611b556116a4565b5b6000611b6484828501611810565b91505092915050565b600081519050919050565b600082825260208201905092915050565b60005b83811015611ba7578082015181840152602081019050611b8c565b60008484015250505050565b6000611bbe82611b6d565b611bc88185611b78565b9350611bd8818560208601611b89565b611be1816119a8565b840191505092915050565b60006020820190508181036000830152611c068184611bb3565b905092915050565b6000819050919050565b600067ffffffffffffffff82169050919050565b6000819050919050565b6000611c51611c4c611c4784611c0e565b611c2c565b611c18565b9050919050565b611c6181611c36565b82525050565b6000602082019050611c7c6000830184611c58565b92915050565b7f496e73756666696369656e742062616c616e6365000000000000000000000000600082015250565b6000611cb8601483611b78565b9150611cc382611c82565b602082019050919050565b60006020820190508181036000830152611ce781611cab565b9050919050565b7f4e487b7100000000000000000000000000000000000000000000000000000000600052601160045260246000fd5b6000611d2882611769565b9150611d3383611769565b9250828203905081811115611d4b57611d4a611cee565b5b92915050565b6000604082019050611d6660008301856117cf565b611d736020830184611773565b9392505050565b611d8381611733565b8114611d8e57600080fd5b50565b600081519050611da081611d7a565b92915050565b600060208284031215611dbc57611dbb6116a4565b5b6000611dca84828501611d91565b91505092915050565b6000611dde82611769565b9150611de983611769565b9250828202611df781611769565b91508282048414831517611e0e57611e0d611cee565b5b5092915050565b7f4e487b7100000000000000000000000000000000000000000000000000000000600052601260045260246000fd5b6000611e4f82611769565b9150611e5a83611769565b925082611e6a57611e69611e15565b5b828204905092915050565b6000606082019050611e8a60008301866117cf565b611e9760208301856117cf565b611ea46040830184611773565b949350505050565b6000611eb782611769565b9150611ec283611769565b9250828201905080821115611eda57611ed9611cee565b5b92915050565b600081519050611eef816118ae565b92915050565b600060208284031215611f0b57611f0a6116a4565b5b6000611f1984828501611ee0565b91505092915050565b6000604082019050611f3760008301856117cf565b611f446020830184611907565b9392505050565b600081519050919050565b600081905092915050565b6000611f6c82611f4b565b611f768185611f56565b9350611f86818560208601611b89565b80840191505092915050565b6000611f9e8284611f61565b91508190509291505056fea264697066735822122068bd97cb2addded6ecc8f4ab09231e43afb3014a0de88ebf2570b51eaae2051664736f6c63430008160033",
  "linkReferences": {},
  "deployedLinkReferences": {}
}